******************************************************************************
                  TI ARM Linker PC v18.12.2                    
******************************************************************************
>> Linked Mon Dec  2 09:06:51 2019

OUTPUT FILE NAME:   <Lab17_Control.out>
ENTRY POINT SYMBOL: "_c_int00_noargs"  address: 00004d79


MEMORY CONFIGURATION

         name            origin    length      used     unused   attr    fill
----------------------  --------  ---------  --------  --------  ----  --------
  MAIN                  00000000   00040000  0000522a  0003add6  R  X
  INFO                  00200000   00004000  00000000  00004000  R  X
  SRAM_CODE             01000000   00010000  00003cbd  0000c343  RW X
  SRAM_DATA             20000000   00010000  00003cbd  0000c343  RW  


SEGMENT ALLOCATION MAP

run origin  load origin   length   init length attrs members
----------  ----------- ---------- ----------- ----- -------
00000000    00000000    00005230   00005230    r-x
  00000000    00000000    000000e4   000000e4    r-- .intvecs
  000000e4    000000e4    00004e76   00004e76    r-x .text
  00004f5c    00004f5c    00000228   00000228    r-- .const
  00005188    00005188    000000a8   000000a8    r-- .cinit
20000000    20000000    00003ac4   00000000    rw-
  20000000    20000000    00003479   00000000    rw- .bss
  20003480    20003480    00000400   00000000    rw- .sysmem
  20003880    20003880    00000244   00000000    rw- .data
2000fe00    2000fe00    00000200   00000000    rw-
  2000fe00    2000fe00    00000200   00000000    rw- .stack


SECTION ALLOCATION MAP

 output                                  attributes/
section   page    origin      length       input sections
--------  ----  ----------  ----------   ----------------
.intvecs   0    00000000    000000e4     
                  00000000    000000e4     startup_msp432p401r_ccs.obj (.intvecs:retain)

.text      0    000000e4    00004e76     
                  000000e4    000010ec     Lab17_Control.obj (.text)
                  000011d0    00000ab8     Nokia5110.obj (.text)
                  00001c88    000006bc     UART0.obj (.text)
                  00002344    00000630     TExaS.obj (.text)
                  00002974    0000032c     system_msp432p401r.obj (.text)
                  00002ca0    00000308     LPF.obj (.text)
                  00002fa8    00000274     ADC14.obj (.text)
                  0000321c    00000228     PWM.obj (.text)
                  00003444    000001e0     Clock.obj (.text)
                  00003624    000001a0     Motor.obj (.text)
                  000037c4    00000194     Reflectance.obj (.text)
                  00003958    00000168     Tachometer.obj (.text)
                  00003ac0    0000014c     Classifier.obj (.text)
                  00003c0c    00000130     TA3InputCapture.obj (.text)
                  00003d3c    0000010c     rtsv7M4_T_le_v4SPD16_eabi.lib : fopen.c.obj (.text:_openfile)
                  00003e48    000000f4     LaunchPad.obj (.text)
                  00003f3c    000000f4     rtsv7M4_T_le_v4SPD16_eabi.lib : memory.c.obj (.text:aligned_alloc)
                  00004030    000000e8                                   : memory.c.obj (.text:free)
                  00004118    000000dc                                   : setvbuf.c.obj (.text:setvbuf)
                  000041f4    000000c0     Bump.obj (.text)
                  000042b4    000000bc     rtsv7M4_T_le_v4SPD16_eabi.lib : open.c.obj (.text:open)
                  00004370    000000b8                                   : add_device.c.obj (.text:add_device)
                  00004428    000000a8     IRDistance.obj (.text)
                  000044d0    000000a4     TimerA1.obj (.text)
                  00004574    0000009c     rtsv7M4_T_le_v4SPD16_eabi.lib : fopen.c.obj (.text:fopen)
                  00004610    0000009c                                   : memcpy_t2.asm.obj (.text)
                  000046ac    0000007c                                   : memory.c.obj (.text:split)
                  00004728    0000007a                                   : memset_t2.asm.obj (.text)
                  000047a2    00000002                                   : _lock.c.obj (.text:_nop)
                  000047a4    00000074                                   : fclose.c.obj (.text:__TI_closefile)
                  00004818    00000068                                   : hostlseek.c.obj (.text:HOSTlseek)
                  00004880    00000068                                   : hostrename.c.obj (.text:HOSTrename)
                  000048e8    00000068                                   : copy_decompress_lzss.c.obj (.text:decompress:lzss:__TI_decompress_lzss)
                  00004950    00000060                                   : hostopen.c.obj (.text:HOSTopen)
                  000049b0    0000005c                                   : close.c.obj (.text:close)
                  00004a0c    00000058                                   : hostread.c.obj (.text:HOSTread)
                  00004a64    00000058                                   : hostwrite.c.obj (.text:HOSTwrite)
                  00004abc    0000004c                                   : fflush.c.obj (.text:__TI_doflush)
                  00004b08    00000048                                   : exit.c.obj (.text:exit)
                  00004b50    00000044                                   : hostclose.c.obj (.text:HOSTclose)
                  00004b94    00000044                                   : hostunlink.c.obj (.text:HOSTunlink)
                  00004bd8    00000044                                   : autoinit.c.obj (.text:__TI_auto_init_nobinit_nopinit:__TI_auto_init_nobinit_nopinit)
                  00004c1c    00000044                                   : getdevice.c.obj (.text:getdevice)
                  00004c60    00000040     SysTickInts.obj (.text)
                  00004ca0    00000038     rtsv7M4_T_le_v4SPD16_eabi.lib : trgmsg.c.obj (.text:__TI_writemsg)
                  00004cd8    00000036                                   : strncpy.c.obj (.text:strncpy)
                  00004d0e    00000002     --HOLE-- [fill = 0]
                  00004d10    00000034                                   : fopen.c.obj (.text:__TI_cleanup)
                  00004d44    00000034                                   : trgmsg.c.obj (.text:__TI_readmsg)
                  00004d78    00000034                                   : boot_cortex_m.c.obj (.text:_c_int00_noargs:_c_int00_noargs)
                  00004dac    00000034                                   : fopen.c.obj (.text:freopen)
                  00004de0    00000030                                   : getdevice.c.obj (.text:finddevice)
                  00004e10    0000002c                                   : unlink.c.obj (.text:unlink)
                  00004e3c    00000028                                   : memory.c.obj (.text:free_list_insert)
                  00004e64    00000028                                   : write.c.obj (.text:write)
                  00004e8c    00000024     CortexM.obj (.text)
                  00004eb0    0000001c     rtsv7M4_T_le_v4SPD16_eabi.lib : memory.c.obj (.text:free_list_remove)
                  00004ecc    00000018                                   : strcmp.c.obj (.text:strcmp)
                  00004ee4    00000016                                   : strchr.c.obj (.text:strchr)
                  00004efa    00000014                                   : strcpy.c.obj (.text:strcpy)
                  00004f0e    00000014                                   : strlen.c.obj (.text:strlen)
                  00004f22    0000000e                                   : copy_decompress_none.c.obj (.text:decompress:none:__TI_decompress_none)
                  00004f30    0000000e     startup_msp432p401r_ccs.obj (.text)
                  00004f3e    0000000c     rtsv7M4_T_le_v4SPD16_eabi.lib : copy_zero_init.c.obj (.text:decompress:ZI:__TI_zero_init)
                  00004f4a    00000008                                   : memory.c.obj (.text:malloc)
                  00004f52    00000004                                   : pre_init.c.obj (.text:_system_pre_init)
                  00004f56    00000004                                   : exit.c.obj (.text:abort:abort)

.const     0    00004f5c    00000228     
                  00004f5c    000001e0     Nokia5110.obj (.const:ASCII)
                  0000513c    00000020     Reflectance.obj (.const:$P$T0$1)
                  0000515c    00000020     Reflectance.obj (.const:$P$T1$2)
                  0000517c    00000008     Nokia5110.obj (.const:.string:Masks)

.cinit     0    00005188    000000a8     
                  00005188    00000083     (.cinit..data.load) [load image, compression = lzss]
                  0000520b    00000001     --HOLE-- [fill = 0]
                  0000520c    0000000c     (__TI_handler_table)
                  00005218    00000008     (.cinit..bss.load) [load image, compression = zero_init]
                  00005220    00000010     (__TI_cinit_table)

.init_array 
*          0    00000000    00000000     UNINITIALIZED

.binit     0    00000000    00000000     

.bss       0    20000000    00003479     UNINITIALIZED
                  20000000    00001000     (.common:x)
                  20001000    00001000     (.common:x2)
                  20002000    00001000     (.common:x3)
                  20003000    000001f8     (.common:Screen)
                  200031f8    00000120     rtsv7M4_T_le_v4SPD16_eabi.lib : trgmsg.c.obj (.bss:_CIOBUF_)
                  20003318    000000a0     (.common:__TI_tmpnams)
                  200033b8    00000014     (.common:LeftTach)
                  200033cc    00000014     (.common:RightTach)
                  200033e0    00000008     (.common:Messageb)
                  200033e8    00000008     (.common:parmbuf)
                  200033f0    00000004     (.common:ADCflag)
                  200033f4    00000004     (.common:ActualSpeedL)
                  200033f8    00000004     (.common:ActualSpeedR)
                  200033fc    00000004     (.common:Center)
                  20003400    00000004     (.common:ControllerFlag)
                  20003404    00000004     (.common:Error2)
                  20003408    00000004     (.common:ErrorL)
                  2000340c    00000004     (.common:ErrorR)
                  20003410    00000004     (.common:I1)
                  20003414    00000004     (.common:LPFSum)
                  20003418    00000004     (.common:LPFSum2)
                  2000341c    00000004     (.common:LPFSum3)
                  20003420    00000004     (.common:Left)
                  20003424    00000004     (.common:LeftSteps)
                  20003428    00000004     (.common:Messageindexb)
                  2000342c    00000004     (.common:PeriodicTask2)
                  20003430    00000004     (.common:PosError)
                  20003434    00000004     (.common:Position)
                  20003438    00000004     (.common:Pt)
                  2000343c    00000004     (.common:Pt2)
                  20003440    00000004     (.common:Pt3)
                  20003444    00000004     (.common:Right)
                  20003448    00000004     (.common:RightSteps)
                  2000344c    00000004     (.common:Size)
                  20003450    00000004     (.common:Time)
                  20003454    00000004     (.common:TimerA1Task)
                  20003458    00000004     (.common:UL)
                  2000345c    00000004     (.common:UR)
                  20003460    00000004     (.common:nc)
                  20003464    00000004     (.common:nl)
                  20003468    00000004     (.common:nr)
                  2000346c    00000002     (.common:Tachometer_FirstLeftTime)
                  2000346e    00000002     (.common:Tachometer_FirstRightTime)
                  20003470    00000002     (.common:Tachometer_SecondLeftTime)
                  20003472    00000002     (.common:Tachometer_SecondRightTime)
                  20003474    00000001     (.common:LeftDir)
                  20003475    00000001     (.common:LineData)
                  20003476    00000001     (.common:LogicData)
                  20003477    00000001     (.common:RightDir)
                  20003478    00000001     (.common:var)

.sysmem    0    20003480    00000400     UNINITIALIZED
                  20003480    00000010     rtsv7M4_T_le_v4SPD16_eabi.lib : memory.c.obj (.sysmem)
                  20003490    000003f0     --HOLE--

.data      0    20003880    00000244     UNINITIALIZED
                  20003880    000000f0     rtsv7M4_T_le_v4SPD16_eabi.lib : defs.c.obj (.data:_ftable)
                  20003970    00000078                                   : host_device.c.obj (.data:_device)
                  200039e8    00000050                                   : host_device.c.obj (.data:_stream)
                  20003a38    00000018     Clock.obj (.data)
                  20003a50    00000018     Lab17_Control.obj (.data)
                  20003a68    00000010     rtsv7M4_T_le_v4SPD16_eabi.lib : defs.c.obj (.data)
                  20003a78    0000000c                                   : exit.c.obj (.data:$O1$$)
                  20003a84    0000000c     TExaS.obj (.data)
                  20003a90    0000000a     Tachometer.obj (.data)
                  20003a9a    00000002     --HOLE--
                  20003a9c    00000008     rtsv7M4_T_le_v4SPD16_eabi.lib : _lock.c.obj (.data:$O1$$)
                  20003aa4    00000008                                   : memory.c.obj (.data:$O1$$)
                  20003aac    00000008     TA3InputCapture.obj (.data)
                  20003ab4    00000004     rtsv7M4_T_le_v4SPD16_eabi.lib : add_device.c.obj (.data)
                  20003ab8    00000004                                   : fopen.c.obj (.data)
                  20003abc    00000004                                   : open.c.obj (.data)
                  20003ac0    00000004     system_msp432p401r.obj (.data)

.stack     0    2000fe00    00000200     UNINITIALIZED
                  2000fe00    00000004     rtsv7M4_T_le_v4SPD16_eabi.lib : boot_cortex_m.c.obj (.stack)
                  2000fe04    000001fc     --HOLE--

MODULE SUMMARY

       Module                        code    ro data   rw data
       ------                        ----    -------   -------
    .\
       LPF.obj                       776     0         24640  
       Lab17_Control.obj             4332    0         296    
       Nokia5110.obj                 2744    488       1008   
       UART0.obj                     1724    0         24     
       TExaS.obj                     1584    0         34     
       system_msp432p401r.obj        812     0         8      
       ADC14.obj                     628     0         0      
       PWM.obj                       552     0         0      
       Clock.obj                     480     0         48     
       Reflectance.obj               404     64        0      
       Motor.obj                     416     0         0      
       Tachometer.obj                360     0         36     
       Classifier.obj                332     0         0      
       TA3InputCapture.obj           304     0         16     
       LaunchPad.obj                 244     0         0      
       startup_msp432p401r_ccs.obj   14      228       0      
       Bump.obj                      192     0         0      
       TimerA1.obj                   164     0         8      
       IRDistance.obj                168     0         0      
       SysTickInts.obj               64      0         0      
       CortexM.obj                   36      0         0      
    +--+-----------------------------+-------+---------+---------+
       Total:                        16330   780       26118  
                                                              
    C:\ti\ccs910\ccs\tools\compiler\ti-cgt-arm_18.12.2.LTS\lib\rtsv7M4_T_le_v4SPD16_eabi.lib
       defs.c.obj                    0       0         832    
       memory.c.obj                  676     0         16     
       trgmsg.c.obj                  108     0         576    
       fopen.c.obj                   528     0         8      
       host_device.c.obj             0       0         400    
       setvbuf.c.obj                 220     0         0      
       open.c.obj                    188     0         8      
       add_device.c.obj              184     0         8      
       memcpy_t2.asm.obj             156     0         0      
       memset_t2.asm.obj             122     0         0      
       fclose.c.obj                  116     0         0      
       getdevice.c.obj               116     0         0      
       hostopen.c.obj                96      0         16     
       copy_decompress_lzss.c.obj    104     0         0      
       hostlseek.c.obj               104     0         0      
       hostrename.c.obj              104     0         0      
       exit.c.obj                    76      0         24     
       close.c.obj                   92      0         0      
       hostread.c.obj                88      0         0      
       hostwrite.c.obj               88      0         0      
       fflush.c.obj                  76      0         0      
       autoinit.c.obj                68      0         0      
       hostclose.c.obj               68      0         0      
       hostunlink.c.obj              68      0         0      
       strncpy.c.obj                 54      0         0      
       boot_cortex_m.c.obj           52      0         0      
       unlink.c.obj                  44      0         0      
       write.c.obj                   40      0         0      
       strcmp.c.obj                  24      0         0      
       strchr.c.obj                  22      0         0      
       strcpy.c.obj                  20      0         0      
       strlen.c.obj                  20      0         0      
       _lock.c.obj                   2       0         16     
       copy_decompress_none.c.obj    14      0         0      
       copy_zero_init.c.obj          12      0         0      
       pre_init.c.obj                4       0         0      
    +--+-----------------------------+-------+---------+---------+
       Total:                        3754    0         1904   
                                                              
       Heap:                         0       0         2048   
       Stack:                        0       0         1024   
       Linker Generated:             0       167       0      
    +--+-----------------------------+-------+---------+---------+
       Grand Total:                  20084   947       31094  


LINKER GENERATED COPY TABLES

__TI_cinit_table @ 00005220 records: 2, size/record: 8, table size: 16
	.data: load addr=00005188, load size=00000083 bytes, run addr=20003880, run size=00000244 bytes, compression=lzss
	.bss: load addr=00005218, load size=00000008 bytes, run addr=20000000, run size=00003479 bytes, compression=zero_init


LINKER GENERATED HANDLER TABLE

__TI_handler_table @ 0000520c records: 3, size/record: 4, table size: 12
	index: 0, handler: __TI_decompress_lzss
	index: 1, handler: __TI_decompress_none
	index: 2, handler: __TI_zero_init


GLOBAL SYMBOLS: SORTED ALPHABETICALLY BY Name 

address   name                           
-------   ----                           
000030a5  ADC0_InitSWTriggerCh12         
00003115  ADC0_InitSWTriggerCh17_12_16   
00002fa9  ADC0_InitSWTriggerCh6          
00003019  ADC0_InitSWTriggerCh67         
00004f3d  ADC14_IRQHandler               
000030f5  ADC_In12                       
00003185  ADC_In17_12_16                 
00002ff9  ADC_In6                        
0000306f  ADC_In67                       
000026d5  ADC_Init                       
200033f0  ADCflag                        
00004f3d  AES256_IRQHandler              
200033f4  ActualSpeedL                   
200033f8  ActualSpeedR                   
000041f5  Bump_Init                      
00004229  Bump_Read                      
00004f3d  BusFault_Handler               
00004f57  C$$EXIT                        
00004ccf  C$$IO$$                        
00004f3d  COMP_E0_IRQHandler             
00004f3d  COMP_E1_IRQHandler             
20003a40  CPMwait                        
00004f3d  CS_IRQHandler                  
20003aac  CaptureTask0                   
20003ab0  CaptureTask2                   
200033fc  Center                         
0000445d  CenterConvert                  
00003ac1  Classify                       
20003a38  ClockFrequency                 
00003599  Clock_Delay1ms                 
0000356f  Clock_Delay1us                 
0000355b  Clock_GetFreq                  
00003445  Clock_Init48MHz                
000007c1  Collision                      
00000267  Controller1                    
00000831  Controller3                    
00000a8d  Controller4                    
00000c05  Controller5                    
20003400  ControllerFlag                 
00003bdb  Convert                        
20003a4c  Crystalstable                  
00004f3d  DMA_ERR_IRQHandler             
00004f3d  DMA_INT0_IRQHandler            
00004f3d  DMA_INT1_IRQHandler            
00004f3d  DMA_INT2_IRQHandler            
00004f3d  DMA_INT3_IRQHandler            
00004f3d  DebugMon_Handler               
00004f3d  Default_Handler                
00004e8d  DisableInterrupts              
00004f3d  EUSCIA0_IRQHandler             
00004f3d  EUSCIA1_IRQHandler             
00004f3d  EUSCIA2_IRQHandler             
00004f3d  EUSCIA3_IRQHandler             
00004f3d  EUSCIB0_IRQHandler             
00004f3d  EUSCIB1_IRQHandler             
00004f3d  EUSCIB2_IRQHandler             
00004f3d  EUSCIB3_IRQHandler             
00004e93  EnableInterrupts               
00004ea3  EndCritical                    
20003404  Error2                         
20003408  ErrorL                         
2000340c  ErrorR                         
00004f3d  FLCTL_IRQHandler               
00004f3d  FPU_IRQHandler                 
00004b51  HOSTclose                      
00004819  HOSTlseek                      
00004951  HOSTopen                       
00004a0d  HOSTread                       
00004881  HOSTrename                     
00004b95  HOSTunlink                     
00004a65  HOSTwrite                      
00004f3d  HardFault_Handler              
20003410  I1                             
20003a48  IFlags                         
000005e1  IRsampling                     
20003a58  Kp                             
000001af  LCDClear1                      
00000401  LCDClear2                      
000006dd  LCDClear3                      
000001c1  LCDOut1                        
00000505  LCDOut2                        
00000775  LCDOut3                        
20003414  LPFSum                         
20003418  LPFSum2                        
2000341c  LPFSum3                        
00002db5  LPF_Calc                       
00002e5d  LPF_Calc2                      
00002f21  LPF_Calc3                      
00002cf5  LPF_Calc_old                   
00002d57  LPF_Init                       
00002e09  LPF_Init2                      
00002ebf  LPF_Init3                      
00002ca1  LPF_Init_old                   
00003e49  LaunchPad_Init                 
00003eb9  LaunchPad_Input                
00003ed3  LaunchPad_LED                  
00003ef1  LaunchPad_Output               
20003420  Left                           
00004429  LeftConvert                    
20003474  LeftDir                        
20003424  LeftSteps                      
200033b8  LeftTach                       
00000b81  Level_2                        
00000d29  Level_3                        
000010ef  Level_4                        
20003475  LineData                       
00002345  LogicAnalyzer                  
0000234f  LogicAnalyzer_P1               
00002425  LogicAnalyzer_P10              
0000235d  LogicAnalyzer_P2               
0000236b  LogicAnalyzer_P2_7654          
0000237b  LogicAnalyzer_P3               
00002389  LogicAnalyzer_P4               
000023a7  LogicAnalyzer_P4_765320        
00002397  LogicAnalyzer_P4_765432        
000023df  LogicAnalyzer_P5               
000023ed  LogicAnalyzer_P6               
000023fb  LogicAnalyzer_P7               
00002409  LogicAnalyzer_P8               
00002417  LogicAnalyzer_P9               
20003476  LogicData                      
0000517c  Masks                          
00004f3d  MemManage_Handler              
200033e0  Messageb                       
20003428  Messageindexb                  
20003a54  Mode                           
00003763  Motor_Backward                 
0000369b  Motor_Forward                  
00003625  Motor_Init                     
0000371d  Motor_Left                     
000036d7  Motor_Right                    
0000367b  Motor_Stop                     
00004f3d  NMI_Handler                    
000019af  Nokia5110_Clear                
00001c01  Nokia5110_ClearBuffer          
00001c35  Nokia5110_ClrPxl               
00001c2b  Nokia5110_DisplayBuffer        
000019db  Nokia5110_DrawFullImage        
0000121d  Nokia5110_Init                 
000012c7  Nokia5110_OutChar              
00001539  Nokia5110_OutSDec              
00001773  Nokia5110_OutSDec1             
00001307  Nokia5110_OutString            
00001325  Nokia5110_OutUDec              
000018e5  Nokia5110_OutUFix1             
00001a1d  Nokia5110_PrintBMP             
00001973  Nokia5110_SetCursor            
00001c5b  Nokia5110_SetPxl               
00004f3d  PCM_IRQHandler                 
00004f3d  PORT1_IRQHandler               
00004f3d  PORT2_IRQHandler               
00004f3d  PORT3_IRQHandler               
00004f3d  PORT4_IRQHandler               
00004f3d  PORT5_IRQHandler               
00004f3d  PORT6_IRQHandler               
00004f3d  PSS_IRQHandler                 
00003307  PWM_Duty1                      
00003327  PWM_Duty2                      
000033cb  PWM_Duty3                      
000033eb  PWM_Duty4                      
0000321d  PWM_Init1                      
00003283  PWM_Init12                     
00003347  PWM_Init34                     
000000e5  Pause3                         
00004f3d  PendSV_Handler                 
2000342c  PeriodicTask2                  
000024b7  PeriodicTask2_Init             
00002531  PeriodicTask2_Stop             
20003430  PosError                       
20003434  Position                       
20003a44  Postwait                       
20003a3c  Prewait                        
00000379  Program17_1                    
0000063d  Program17_2                    
00000929  Program17_3                    
20003438  Pt                             
2000343c  Pt2                            
20003440  Pt3                            
00004f3d  RTC_C_IRQHandler               
00003839  Reflectance_Center             
0000390f  Reflectance_End                
000037c5  Reflectance_Init               
00003863  Reflectance_Position           
000037ef  Reflectance_Read               
000038dd  Reflectance_Start              
00004f31  Reset_Handler                  
20003444  Right                          
00004491  RightConvert                   
20003477  RightDir                       
20003448  RightSteps                     
200033cc  RightTach                      
00004f3d  SVC_Handler                    
00002433  Scope                          
20003000  Screen                         
20003a50  Second_Bump                    
20003a60  SetPoint                       
2000344c  Size                           
00004e99  StartCritical                  
00000e95  SysTick_Handler                
00000e95  SysTick_Handler                
00004c61  SysTick_Init                   
20003ac0  SystemCoreClock                
00002975  SystemCoreClockUpdate          
00002be9  SystemInit                     
00002521  T32_INT1_IRQHandler            
00002521  T32_INT1_IRQHandler            
00004f3d  T32_INT2_IRQHandler            
00004f3d  T32_INTC_IRQHandler            
00004f3d  TA0_0_IRQHandler               
00004f3d  TA0_N_IRQHandler               
00004543  TA1_0_IRQHandler               
00004543  TA1_0_IRQHandler               
00004f3d  TA1_N_IRQHandler               
00004f3d  TA2_0_IRQHandler               
00004f3d  TA2_N_IRQHandler               
00003cc7  TA3_0_IRQHandler               
00003cc7  TA3_0_IRQHandler               
00003ce1  TA3_N_IRQHandler               
00003ce1  TA3_N_IRQHandler               
00002673  TExaS_Clear0                   
0000267f  TExaS_Clear1                   
0000268b  TExaS_Clear2                   
00002697  TExaS_Clear3                   
000026a3  TExaS_Clear4                   
000026a5  TExaS_Clear5                   
000026b1  TExaS_Clear6                   
000027b1  TExaS_Init                     
20003a88  TExaS_ScopeErrConflict         
20003a84  TExaS_ScopeErrLostData         
20003a8c  TExaS_ScopeWrnReconfig         
00002611  TExaS_Set                      
00002629  TExaS_Set0                     
00002635  TExaS_Set1                     
00002641  TExaS_Set2                     
0000264d  TExaS_Set3                     
00002659  TExaS_Set4                     
0000265b  TExaS_Set5                     
00002667  TExaS_Set6                     
00002911  TExaS_Stop                     
000025c7  TExaS_Task0                    
000025d3  TExaS_Task1                    
000025df  TExaS_Task2                    
000025eb  TExaS_Task3                    
000025f7  TExaS_Task4                    
000025f9  TExaS_Task5                    
00002605  TExaS_Task6                    
2000346c  Tachometer_FirstLeftTime       
2000346e  Tachometer_FirstRightTime      
00003a2d  Tachometer_Get                 
000039e5  Tachometer_Init                
20003a99  Tachometer_LeftDir             
20003a94  Tachometer_LeftSteps           
20003a98  Tachometer_RightDir            
20003a90  Tachometer_RightSteps          
20003470  Tachometer_SecondLeftTime      
20003472  Tachometer_SecondRightTime     
20003450  Time                           
20003454  TimerA1Task                    
000044d1  TimerA1_Init                   
0000452f  TimerA1_Stop                   
00003c19  TimerA3Capture_Init            
000009d5  Turn                           
00001ccf  UART0_InChar                   
00002159  UART0_InString                 
00001d19  UART0_InUDec                   
0000200d  UART0_InUHex                   
00001c89  UART0_Init                     
000022b9  UART0_Initprintf               
00001cdf  UART0_OutChar                  
00001cfb  UART0_OutString                
00001d9d  UART0_OutUDec                  
00001f09  UART0_OutUDec4                 
00001f5d  UART0_OutUDec5                 
00001f99  UART0_OutUFix1                 
00001fc1  UART0_OutUFix2                 
000020d1  UART0_OutUHex                  
0000213d  UART0_OutUHex2                 
0000259b  UART_InChar                    
00002541  UART_Init                      
000025ab  UART_OutChar                   
20003458  UL                             
2000345c  UR                             
00004f3d  UsageFault_Handler             
4000480c  WDTCTL_SYM                     
00004f3d  WDT_A_IRQHandler               
00004eab  WaitForInterrupt               
200031f8  __CIOBUF_                      
20010000  __STACK_END                    
00000200  __STACK_SIZE                   
00000400  __SYSMEM_SIZE                  
00005220  __TI_CINIT_Base                
00005230  __TI_CINIT_Limit               
0000520c  __TI_Handler_Table_Base        
00005218  __TI_Handler_Table_Limit       
00004bd9  __TI_auto_init_nobinit_nopinit 
00004d11  __TI_cleanup                   
20003a78  __TI_cleanup_ptr               
000047a5  __TI_closefile                 
000048e9  __TI_decompress_lzss           
00004f23  __TI_decompress_none           
00004abd  __TI_doflush                   
20003a7c  __TI_dtors_ptr                 
20003a80  __TI_enable_exit_profile_output
20003a68  __TI_ft_end                    
ffffffff  __TI_pprof_out_hndl            
ffffffff  __TI_prof_data_size            
ffffffff  __TI_prof_data_start           
00004d45  __TI_readmsg                   
00000000  __TI_static_base__             
20003318  __TI_tmpnams                   
00004ca1  __TI_writemsg                  
00004f3f  __TI_zero_init                 
00004729  __aeabi_memclr                 
00004729  __aeabi_memclr4                
00004729  __aeabi_memclr8                
00004611  __aeabi_memcpy                 
00004611  __aeabi_memcpy4                
00004611  __aeabi_memcpy8                
0000472b  __aeabi_memset                 
0000472b  __aeabi_memset4                
0000472b  __aeabi_memset8                
20003a74  __aeabi_stderr                 
20003a6c  __aeabi_stdin                  
20003a70  __aeabi_stdout                 
ffffffff  __binit__                      
ffffffff  __c_args__                     
UNDEFED   __mpu_init                     
2000fe00  __stack                        
00004d79  _c_int00_noargs                
20003970  _device                        
20003880  _ftable                        
20003a9c  _lock                          
000047a3  _nop                           
200039e8  _stream                        
20003480  _sys_memory                    
UNDEFED   _system_post_cinit             
00004f53  _system_pre_init               
20003aa0  _unlock                        
00004f57  abort                          
00004371  add_device                     
00003f3d  aligned_alloc                  
00000225  avg                            
ffffffff  binit                          
20003a64  change                         
000049b1  close                          
00003561  delay                          
00004b09  exit                           
000021f3  ferror                         
000021d3  fgetc                          
00004de1  finddevice                     
00004575  fopen                          
00004031  free                           
00004dad  freopen                        
00004c1d  getdevice                      
20003a5c  i                              
00000000  interruptVectors               
0000118f  main                           
00004f4b  malloc                         
00003f3d  memalign                       
00004611  memcpy                         
00004731  memset                         
20003460  nc                             
20003464  nl                             
20003468  nr                             
000042b5  open                           
00002115  outnibble                      
200033e8  parmbuf                        
00004e11  remove                         
00004119  setvbuf                        
00004ee5  strchr                         
00004ecd  strcmp                         
00004efb  strcpy                         
00004f0f  strlen                         
00004cd9  strncpy                        
00003c0d  ta3dummy                       
0000399f  tachometerLeftInt              
00003959  tachometerRightInt             
00002211  uart_close                     
0000228f  uart_lseek                     
00002201  uart_open                      
00002223  uart_read                      
000022ab  uart_rename                    
0000229f  uart_unlink                    
0000224d  uart_write                     
00004e11  unlink                         
20003478  var                            
00004e65  write                          
20000000  x                              
20001000  x2                             
20002000  x3                             


GLOBAL SYMBOLS: SORTED BY Symbol Address 

address   name                           
-------   ----                           
00000000  __TI_static_base__             
00000000  interruptVectors               
000000e5  Pause3                         
000001af  LCDClear1                      
000001c1  LCDOut1                        
00000200  __STACK_SIZE                   
00000225  avg                            
00000267  Controller1                    
00000379  Program17_1                    
00000400  __SYSMEM_SIZE                  
00000401  LCDClear2                      
00000505  LCDOut2                        
000005e1  IRsampling                     
0000063d  Program17_2                    
000006dd  LCDClear3                      
00000775  LCDOut3                        
000007c1  Collision                      
00000831  Controller3                    
00000929  Program17_3                    
000009d5  Turn                           
00000a8d  Controller4                    
00000b81  Level_2                        
00000c05  Controller5                    
00000d29  Level_3                        
00000e95  SysTick_Handler                
00000e95  SysTick_Handler                
000010ef  Level_4                        
0000118f  main                           
0000121d  Nokia5110_Init                 
000012c7  Nokia5110_OutChar              
00001307  Nokia5110_OutString            
00001325  Nokia5110_OutUDec              
00001539  Nokia5110_OutSDec              
00001773  Nokia5110_OutSDec1             
000018e5  Nokia5110_OutUFix1             
00001973  Nokia5110_SetCursor            
000019af  Nokia5110_Clear                
000019db  Nokia5110_DrawFullImage        
00001a1d  Nokia5110_PrintBMP             
00001c01  Nokia5110_ClearBuffer          
00001c2b  Nokia5110_DisplayBuffer        
00001c35  Nokia5110_ClrPxl               
00001c5b  Nokia5110_SetPxl               
00001c89  UART0_Init                     
00001ccf  UART0_InChar                   
00001cdf  UART0_OutChar                  
00001cfb  UART0_OutString                
00001d19  UART0_InUDec                   
00001d9d  UART0_OutUDec                  
00001f09  UART0_OutUDec4                 
00001f5d  UART0_OutUDec5                 
00001f99  UART0_OutUFix1                 
00001fc1  UART0_OutUFix2                 
0000200d  UART0_InUHex                   
000020d1  UART0_OutUHex                  
00002115  outnibble                      
0000213d  UART0_OutUHex2                 
00002159  UART0_InString                 
000021d3  fgetc                          
000021f3  ferror                         
00002201  uart_open                      
00002211  uart_close                     
00002223  uart_read                      
0000224d  uart_write                     
0000228f  uart_lseek                     
0000229f  uart_unlink                    
000022ab  uart_rename                    
000022b9  UART0_Initprintf               
00002345  LogicAnalyzer                  
0000234f  LogicAnalyzer_P1               
0000235d  LogicAnalyzer_P2               
0000236b  LogicAnalyzer_P2_7654          
0000237b  LogicAnalyzer_P3               
00002389  LogicAnalyzer_P4               
00002397  LogicAnalyzer_P4_765432        
000023a7  LogicAnalyzer_P4_765320        
000023df  LogicAnalyzer_P5               
000023ed  LogicAnalyzer_P6               
000023fb  LogicAnalyzer_P7               
00002409  LogicAnalyzer_P8               
00002417  LogicAnalyzer_P9               
00002425  LogicAnalyzer_P10              
00002433  Scope                          
000024b7  PeriodicTask2_Init             
00002521  T32_INT1_IRQHandler            
00002521  T32_INT1_IRQHandler            
00002531  PeriodicTask2_Stop             
00002541  UART_Init                      
0000259b  UART_InChar                    
000025ab  UART_OutChar                   
000025c7  TExaS_Task0                    
000025d3  TExaS_Task1                    
000025df  TExaS_Task2                    
000025eb  TExaS_Task3                    
000025f7  TExaS_Task4                    
000025f9  TExaS_Task5                    
00002605  TExaS_Task6                    
00002611  TExaS_Set                      
00002629  TExaS_Set0                     
00002635  TExaS_Set1                     
00002641  TExaS_Set2                     
0000264d  TExaS_Set3                     
00002659  TExaS_Set4                     
0000265b  TExaS_Set5                     
00002667  TExaS_Set6                     
00002673  TExaS_Clear0                   
0000267f  TExaS_Clear1                   
0000268b  TExaS_Clear2                   
00002697  TExaS_Clear3                   
000026a3  TExaS_Clear4                   
000026a5  TExaS_Clear5                   
000026b1  TExaS_Clear6                   
000026d5  ADC_Init                       
000027b1  TExaS_Init                     
00002911  TExaS_Stop                     
00002975  SystemCoreClockUpdate          
00002be9  SystemInit                     
00002ca1  LPF_Init_old                   
00002cf5  LPF_Calc_old                   
00002d57  LPF_Init                       
00002db5  LPF_Calc                       
00002e09  LPF_Init2                      
00002e5d  LPF_Calc2                      
00002ebf  LPF_Init3                      
00002f21  LPF_Calc3                      
00002fa9  ADC0_InitSWTriggerCh6          
00002ff9  ADC_In6                        
00003019  ADC0_InitSWTriggerCh67         
0000306f  ADC_In67                       
000030a5  ADC0_InitSWTriggerCh12         
000030f5  ADC_In12                       
00003115  ADC0_InitSWTriggerCh17_12_16   
00003185  ADC_In17_12_16                 
0000321d  PWM_Init1                      
00003283  PWM_Init12                     
00003307  PWM_Duty1                      
00003327  PWM_Duty2                      
00003347  PWM_Init34                     
000033cb  PWM_Duty3                      
000033eb  PWM_Duty4                      
00003445  Clock_Init48MHz                
0000355b  Clock_GetFreq                  
00003561  delay                          
0000356f  Clock_Delay1us                 
00003599  Clock_Delay1ms                 
00003625  Motor_Init                     
0000367b  Motor_Stop                     
0000369b  Motor_Forward                  
000036d7  Motor_Right                    
0000371d  Motor_Left                     
00003763  Motor_Backward                 
000037c5  Reflectance_Init               
000037ef  Reflectance_Read               
00003839  Reflectance_Center             
00003863  Reflectance_Position           
000038dd  Reflectance_Start              
0000390f  Reflectance_End                
00003959  tachometerRightInt             
0000399f  tachometerLeftInt              
000039e5  Tachometer_Init                
00003a2d  Tachometer_Get                 
00003ac1  Classify                       
00003bdb  Convert                        
00003c0d  ta3dummy                       
00003c19  TimerA3Capture_Init            
00003cc7  TA3_0_IRQHandler               
00003cc7  TA3_0_IRQHandler               
00003ce1  TA3_N_IRQHandler               
00003ce1  TA3_N_IRQHandler               
00003e49  LaunchPad_Init                 
00003eb9  LaunchPad_Input                
00003ed3  LaunchPad_LED                  
00003ef1  LaunchPad_Output               
00003f3d  aligned_alloc                  
00003f3d  memalign                       
00004031  free                           
00004119  setvbuf                        
000041f5  Bump_Init                      
00004229  Bump_Read                      
000042b5  open                           
00004371  add_device                     
00004429  LeftConvert                    
0000445d  CenterConvert                  
00004491  RightConvert                   
000044d1  TimerA1_Init                   
0000452f  TimerA1_Stop                   
00004543  TA1_0_IRQHandler               
00004543  TA1_0_IRQHandler               
00004575  fopen                          
00004611  __aeabi_memcpy                 
00004611  __aeabi_memcpy4                
00004611  __aeabi_memcpy8                
00004611  memcpy                         
00004729  __aeabi_memclr                 
00004729  __aeabi_memclr4                
00004729  __aeabi_memclr8                
0000472b  __aeabi_memset                 
0000472b  __aeabi_memset4                
0000472b  __aeabi_memset8                
00004731  memset                         
000047a3  _nop                           
000047a5  __TI_closefile                 
00004819  HOSTlseek                      
00004881  HOSTrename                     
000048e9  __TI_decompress_lzss           
00004951  HOSTopen                       
000049b1  close                          
00004a0d  HOSTread                       
00004a65  HOSTwrite                      
00004abd  __TI_doflush                   
00004b09  exit                           
00004b51  HOSTclose                      
00004b95  HOSTunlink                     
00004bd9  __TI_auto_init_nobinit_nopinit 
00004c1d  getdevice                      
00004c61  SysTick_Init                   
00004ca1  __TI_writemsg                  
00004ccf  C$$IO$$                        
00004cd9  strncpy                        
00004d11  __TI_cleanup                   
00004d45  __TI_readmsg                   
00004d79  _c_int00_noargs                
00004dad  freopen                        
00004de1  finddevice                     
00004e11  remove                         
00004e11  unlink                         
00004e65  write                          
00004e8d  DisableInterrupts              
00004e93  EnableInterrupts               
00004e99  StartCritical                  
00004ea3  EndCritical                    
00004eab  WaitForInterrupt               
00004ecd  strcmp                         
00004ee5  strchr                         
00004efb  strcpy                         
00004f0f  strlen                         
00004f23  __TI_decompress_none           
00004f31  Reset_Handler                  
00004f3d  ADC14_IRQHandler               
00004f3d  AES256_IRQHandler              
00004f3d  BusFault_Handler               
00004f3d  COMP_E0_IRQHandler             
00004f3d  COMP_E1_IRQHandler             
00004f3d  CS_IRQHandler                  
00004f3d  DMA_ERR_IRQHandler             
00004f3d  DMA_INT0_IRQHandler            
00004f3d  DMA_INT1_IRQHandler            
00004f3d  DMA_INT2_IRQHandler            
00004f3d  DMA_INT3_IRQHandler            
00004f3d  DebugMon_Handler               
00004f3d  Default_Handler                
00004f3d  EUSCIA0_IRQHandler             
00004f3d  EUSCIA1_IRQHandler             
00004f3d  EUSCIA2_IRQHandler             
00004f3d  EUSCIA3_IRQHandler             
00004f3d  EUSCIB0_IRQHandler             
00004f3d  EUSCIB1_IRQHandler             
00004f3d  EUSCIB2_IRQHandler             
00004f3d  EUSCIB3_IRQHandler             
00004f3d  FLCTL_IRQHandler               
00004f3d  FPU_IRQHandler                 
00004f3d  HardFault_Handler              
00004f3d  MemManage_Handler              
00004f3d  NMI_Handler                    
00004f3d  PCM_IRQHandler                 
00004f3d  PORT1_IRQHandler               
00004f3d  PORT2_IRQHandler               
00004f3d  PORT3_IRQHandler               
00004f3d  PORT4_IRQHandler               
00004f3d  PORT5_IRQHandler               
00004f3d  PORT6_IRQHandler               
00004f3d  PSS_IRQHandler                 
00004f3d  PendSV_Handler                 
00004f3d  RTC_C_IRQHandler               
00004f3d  SVC_Handler                    
00004f3d  T32_INT2_IRQHandler            
00004f3d  T32_INTC_IRQHandler            
00004f3d  TA0_0_IRQHandler               
00004f3d  TA0_N_IRQHandler               
00004f3d  TA1_N_IRQHandler               
00004f3d  TA2_0_IRQHandler               
00004f3d  TA2_N_IRQHandler               
00004f3d  UsageFault_Handler             
00004f3d  WDT_A_IRQHandler               
00004f3f  __TI_zero_init                 
00004f4b  malloc                         
00004f53  _system_pre_init               
00004f57  C$$EXIT                        
00004f57  abort                          
0000517c  Masks                          
0000520c  __TI_Handler_Table_Base        
00005218  __TI_Handler_Table_Limit       
00005220  __TI_CINIT_Base                
00005230  __TI_CINIT_Limit               
20000000  x                              
20001000  x2                             
20002000  x3                             
20003000  Screen                         
200031f8  __CIOBUF_                      
20003318  __TI_tmpnams                   
200033b8  LeftTach                       
200033cc  RightTach                      
200033e0  Messageb                       
200033e8  parmbuf                        
200033f0  ADCflag                        
200033f4  ActualSpeedL                   
200033f8  ActualSpeedR                   
200033fc  Center                         
20003400  ControllerFlag                 
20003404  Error2                         
20003408  ErrorL                         
2000340c  ErrorR                         
20003410  I1                             
20003414  LPFSum                         
20003418  LPFSum2                        
2000341c  LPFSum3                        
20003420  Left                           
20003424  LeftSteps                      
20003428  Messageindexb                  
2000342c  PeriodicTask2                  
20003430  PosError                       
20003434  Position                       
20003438  Pt                             
2000343c  Pt2                            
20003440  Pt3                            
20003444  Right                          
20003448  RightSteps                     
2000344c  Size                           
20003450  Time                           
20003454  TimerA1Task                    
20003458  UL                             
2000345c  UR                             
20003460  nc                             
20003464  nl                             
20003468  nr                             
2000346c  Tachometer_FirstLeftTime       
2000346e  Tachometer_FirstRightTime      
20003470  Tachometer_SecondLeftTime      
20003472  Tachometer_SecondRightTime     
20003474  LeftDir                        
20003475  LineData                       
20003476  LogicData                      
20003477  RightDir                       
20003478  var                            
20003480  _sys_memory                    
20003880  _ftable                        
20003970  _device                        
200039e8  _stream                        
20003a38  ClockFrequency                 
20003a3c  Prewait                        
20003a40  CPMwait                        
20003a44  Postwait                       
20003a48  IFlags                         
20003a4c  Crystalstable                  
20003a50  Second_Bump                    
20003a54  Mode                           
20003a58  Kp                             
20003a5c  i                              
20003a60  SetPoint                       
20003a64  change                         
20003a68  __TI_ft_end                    
20003a6c  __aeabi_stdin                  
20003a70  __aeabi_stdout                 
20003a74  __aeabi_stderr                 
20003a78  __TI_cleanup_ptr               
20003a7c  __TI_dtors_ptr                 
20003a80  __TI_enable_exit_profile_output
20003a84  TExaS_ScopeErrLostData         
20003a88  TExaS_ScopeErrConflict         
20003a8c  TExaS_ScopeWrnReconfig         
20003a90  Tachometer_RightSteps          
20003a94  Tachometer_LeftSteps           
20003a98  Tachometer_RightDir            
20003a99  Tachometer_LeftDir             
20003a9c  _lock                          
20003aa0  _unlock                        
20003aac  CaptureTask0                   
20003ab0  CaptureTask2                   
20003ac0  SystemCoreClock                
2000fe00  __stack                        
20010000  __STACK_END                    
4000480c  WDTCTL_SYM                     
ffffffff  __TI_pprof_out_hndl            
ffffffff  __TI_prof_data_size            
ffffffff  __TI_prof_data_start           
ffffffff  __binit__                      
ffffffff  __c_args__                     
ffffffff  binit                          
UNDEFED   __mpu_init                     
UNDEFED   _system_post_cinit             

[390 symbols]
