******************************************************************************
                  TI ARM Linker PC v16.9.4                     
******************************************************************************
>> Linked Wed Jan 24 20:49:52 2018

OUTPUT FILE NAME:   <Lab18_UART.out>
ENTRY POINT SYMBOL: "_c_int00"  address: 0000370d


MEMORY CONFIGURATION

         name            origin    length      used     unused   attr    fill
----------------------  --------  ---------  --------  --------  ----  --------
  MAIN                  00000000   00040000  00003ba8  0003c458  R  X
  INFO                  00200000   00004000  00000000  00004000  R  X
  SRAM_CODE             01000000   00010000  00000bf2  0000f40e  RW X
  SRAM_DATA             20000000   00010000  00000bf2  0000f40e  RW  


SEGMENT ALLOCATION MAP

run origin  load origin   length   init length attrs members
----------  ----------- ---------- ----------- ----- -------
00000000    00000000    00003ba8   00003ba8    r-x
  00000000    00000000    000000e4   000000e4    r-- .intvecs
  000000e4    000000e4    00003904   00003904    r-x .text
  000039e8    000039e8    00000120   00000120    r-- .const
  00003b08    00003b08    000000a0   000000a0    r-- .cinit
20000000    20000000    000009f4   00000000    rw-
  20000000    20000000    00000400   00000000    rw- .sysmem
  20000400    20000400    000003d6   00000000    rw- .bss
  200007d8    200007d8    0000021c   00000000    rw- .data
2000fe00    2000fe00    00000200   00000000    rw-
  2000fe00    2000fe00    00000200   00000000    rw- .stack


SECTION ALLOCATION MAP

 output                                  attributes/
section   page    origin      length       input sections
--------  ----  ----------  ----------   ----------------
.intvecs   0    00000000    000000e4     
                  00000000    000000e4     startup_msp432p401r_ccs.obj (.intvecs:retain)

.binit     0    00000000    00000000     

.text      0    000000e4    00003904     
                  000000e4    00000eb4     Lab18_UARTmain.obj (.text)
                  00000f98    000006bc     UART0.obj (.text)
                  00001654    000005b6     EUSCIA0.obj (.text)
                  00001c0a    00000002     rtsv7M4_T_le_v4SPD16_eabi.lib : mpu_init.obj (.text)
                  00001c0c    000003d0                                   : memory.obj (.text)
                  00001fdc    0000032c     system_msp432p401r.obj (.text)
                  00002308    00000228     PWM.obj (.text)
                  00002530    000001e0     Clock.obj (.text)
                  00002710    000001c4     rtsv7M4_T_le_v4SPD16_eabi.lib : fopen.obj (.text)
                  000028d4    0000018c     Motor.obj (.text)
                  00002a60    00000174     FIFO0.obj (.text)
                  00002bd4    000000f4     LaunchPad.obj (.text)
                  00002cc8    000000dc     rtsv7M4_T_le_v4SPD16_eabi.lib : setvbuf.obj (.text)
                  00002da4    000000c8                                   : fflush.obj (.text)
                  00002e6c    000000bc                                   : open.obj (.text)
                  00002f28    000000b8                                   : add_device.obj (.text)
                  00002fe0    000000a8     TimerA1.obj (.text)
                  00003088    0000009c     rtsv7M4_T_le_v4SPD16_eabi.lib : memcpy_t2.obj (.text)
                  00003124    00000098                                   : fclose.obj (.text)
                  000031bc    0000007a                                   : memset_t2.obj (.text)
                  00003236    00000002                                   : startup.obj (.text)
                  00003238    00000078     Bump.obj (.text)
                  000032b0    00000070     rtsv7M4_T_le_v4SPD16_eabi.lib : autoinit.obj (.text)
                  00003320    00000070                                   : getdevice.obj (.text)
                  00003390    0000006c     SysTick.obj (.text)
                  000033fc    0000006c     rtsv7M4_T_le_v4SPD16_eabi.lib : hostrename.obj (.text)
                  00003468    00000068                                   : copy_decompress_lzss.obj (.text:decompress:lzss)
                  000034d0    00000068                                   : hostlseek.obj (.text)
                  00003538    00000068                                   : trgmsg.obj (.text)
                  000035a0    00000060                                   : hostopen.obj (.text)
                  00003600    0000005c                                   : close.obj (.text)
                  0000365c    00000058                                   : hostread.obj (.text)
                  000036b4    00000058                                   : hostwrite.obj (.text)
                  0000370c    00000054                                   : boot.obj (.text)
                  00003760    00000054                                   : exit.obj (.text)
                  000037b4    0000004c                                   : cpy_tbl.obj (.text)
                  00003800    00000044                                   : hostclose.obj (.text)
                  00003844    00000044                                   : hostunlink.obj (.text)
                  00003888    00000036                                   : strncpy.obj (.text)
                  000038be    00000002     --HOLE-- [fill = 0]
                  000038c0    0000002c                                   : unlink.obj (.text)
                  000038ec    00000028                                   : write.obj (.text)
                  00003914    00000024     CortexM.obj (.text)
                  00003938    00000018     rtsv7M4_T_le_v4SPD16_eabi.lib : args_main.obj (.text)
                  00003950    00000018                                   : strcmp.obj (.text)
                  00003968    00000016                                   : strchr.obj (.text)
                  0000397e    00000002     --HOLE-- [fill = 0]
                  00003980    00000014                                   : _lock.obj (.text)
                  00003994    00000014                                   : strcpy.obj (.text)
                  000039a8    00000014                                   : strlen.obj (.text)
                  000039bc    0000000e                                   : copy_decompress_none.obj (.text:decompress:none)
                  000039ca    0000000e     startup_msp432p401r_ccs.obj (.text)
                  000039d8    0000000c     rtsv7M4_T_le_v4SPD16_eabi.lib : copy_zero_init.obj (.text:decompress:ZI)
                  000039e4    00000004                                   : pre_init.obj (.text)

.const     0    000039e8    00000120     
                  000039e8    00000120     Lab18_UARTmain.obj (.const:LL)

.cinit     0    00003b08    000000a0     
                  00003b08    0000007a     (.cinit..data.load) [load image, compression = lzss]
                  00003b82    00000002     --HOLE-- [fill = 0]
                  00003b84    0000000c     (__TI_handler_table)
                  00003b90    00000008     (.cinit..bss.load) [load image, compression = zero_init]
                  00003b98    00000010     (__TI_cinit_table)

.init_array 
*          0    00000000    00000000     UNINITIALIZED

.sysmem    0    20000000    00000400     UNINITIALIZED
                  20000000    00000008     rtsv7M4_T_le_v4SPD16_eabi.lib : memory.obj (.sysmem)
                  20000008    000003f8     --HOLE--

.bss       0    20000400    000003d6     UNINITIALIZED
                  20000400    00000120     rtsv7M4_T_le_v4SPD16_eabi.lib : trgmsg.obj (.bss:_CIOBUF_)
                  20000520    00000100     (.common:TxHistogram)
                  20000620    000000a0     (.common:__TI_tmpnams)
                  200006c0    00000040     FIFO0.obj (.bss:TxFifo0)
                  20000700    00000040     (.common:String)
                  20000740    0000002c     (.common:UserStack)
                  2000076c    00000010     FIFO0.obj (.bss:RxFifo0)
                  2000077c    00000008     (.common:Messageb)
                  20000784    00000008     (.common:Messagec)
                  2000078c    00000008     (.common:parmbuf)
                  20000794    00000004     (.common:Elapsed)
                  20000798    00000004     (.common:First)
                  2000079c    00000004     (.common:MaxTime)
                  200007a0    00000004     (.common:Messageindexb)
                  200007a4    00000004     (.common:Messageindexc)
                  200007a8    00000004     (.common:NumErrors)
                  200007ac    00000004     (.common:NumSuccess)
                  200007b0    00000004     (.common:Running)
                  200007b4    00000004     (.common:Rx0GetI)
                  200007b8    00000004     (.common:Rx0PutI)
                  200007bc    00000004     (.common:Size)
                  200007c0    00000004     (.common:Time)
                  200007c4    00000004     (.common:TimerA1Task)
                  200007c8    00000004     (.common:Tx0GetI)
                  200007cc    00000004     (.common:Tx0PutI)
                  200007d0    00000004     (.common:UserSP)
                  200007d4    00000001     (.common:ReadData)
                  200007d5    00000001     (.common:WriteData)

.data      0    200007d8    0000021c     UNINITIALIZED
                  200007d8    000000f0     rtsv7M4_T_le_v4SPD16_eabi.lib : defs.obj (.data:_ftable)
                  200008c8    00000078                                   : write.obj (.data:_device)
                  20000940    00000050                                   : write.obj (.data:_stream)
                  20000990    00000018     Clock.obj (.data)
                  200009a8    00000010     rtsv7M4_T_le_v4SPD16_eabi.lib : defs.obj (.data)
                  200009b8    0000000c                                   : exit.obj (.data:$O1$$)
                  200009c4    0000000c                                   : memory.obj (.data:$O1$$)
                  200009d0    00000008                                   : _lock.obj (.data:$O1$$)
                  200009d8    00000008     Lab18_UARTmain.obj (.data)
                  200009e0    00000004     rtsv7M4_T_le_v4SPD16_eabi.lib : add_device.obj (.data)
                  200009e4    00000004                                   : fopen.obj (.data)
                  200009e8    00000004                                   : open.obj (.data)
                  200009ec    00000004                                   : stkdepth_vars.obj (.data)
                  200009f0    00000004     system_msp432p401r.obj (.data)

.stack     0    2000fe00    00000200     UNINITIALIZED
                  2000fe00    00000200     --HOLE--

MODULE SUMMARY

       Module                        code    ro data   rw data
       ------                        ----    -------   -------
    .\
       Lab18_UARTmain.obj            3764    288       308    
       UART0.obj                     1724    0         24     
       EUSCIA0.obj                   1462    0         24     
       FIFO0.obj                     372     0         704    
       system_msp432p401r.obj        812     0         8      
       PWM.obj                       552     0         0      
       Clock.obj                     480     0         48     
       Motor.obj                     396     0         0      
       LaunchPad.obj                 244     0         0      
       startup_msp432p401r_ccs.obj   14      228       0      
       TimerA1.obj                   168     0         8      
       Bump.obj                      120     0         0      
       SysTick.obj                   108     0         0      
       CortexM.obj                   36      0         0      
    +--+-----------------------------+-------+---------+---------+
       Total:                        10252   516       1124   
                                                              
    C:\ti\ccsv7\tools\compiler\ti-cgt-arm_16.9.4.LTS\lib\rtsv7M4_T_le_v4SPD16_eabi.lib
       memory.obj                    976     0         24     
       defs.obj                      0       0         832    
       trgmsg.obj                    104     0         576    
       fopen.obj                     452     0         8      
       write.obj                     40      0         400    
       setvbuf.obj                   220     0         0      
       fflush.obj                    200     0         0      
       open.obj                      188     0         8      
       add_device.obj                184     0         8      
       memcpy_t2.obj                 156     0         0      
       fclose.obj                    152     0         0      
       memset_t2.obj                 122     0         0      
       autoinit.obj                  112     0         0      
       getdevice.obj                 112     0         0      
       hostopen.obj                  96      0         16     
       exit.obj                      84      0         24     
       hostrename.obj                108     0         0      
       copy_decompress_lzss.obj      104     0         0      
       hostlseek.obj                 104     0         0      
       close.obj                     92      0         0      
       hostread.obj                  88      0         0      
       hostwrite.obj                 88      0         0      
       boot.obj                      84      0         0      
       cpy_tbl.obj                   76      0         0      
       hostclose.obj                 68      0         0      
       hostunlink.obj                68      0         0      
       strncpy.obj                   54      0         0      
       unlink.obj                    44      0         0      
       _lock.obj                     20      0         16     
       args_main.obj                 24      0         0      
       strcmp.obj                    24      0         0      
       strchr.obj                    22      0         0      
       strcpy.obj                    20      0         0      
       strlen.obj                    20      0         0      
       copy_decompress_none.obj      14      0         0      
       copy_zero_init.obj            12      0         0      
       stkdepth_vars.obj             0       0         8      
       pre_init.obj                  4       0         0      
       mpu_init.obj                  2       0         0      
       startup.obj                   2       0         0      
    +--+-----------------------------+-------+---------+---------+
       Total:                        4340    0         1920   
                                                              
       Heap:                         0       0         2048   
       Stack:                        0       0         1024   
       Linker Generated:             0       158       0      
    +--+-----------------------------+-------+---------+---------+
       Grand Total:                  14592   674       6116   


LINKER GENERATED COPY TABLES

__TI_cinit_table @ 00003b98 records: 2, size/record: 8, table size: 16
	.data: load addr=00003b08, load size=0000007a bytes, run addr=200007d8, run size=0000021c bytes, compression=lzss
	.bss: load addr=00003b90, load size=00000008 bytes, run addr=20000400, run size=000003d6 bytes, compression=zero_init


LINKER GENERATED HANDLER TABLE

__TI_handler_table @ 00003b84 records: 3, size/record: 4, table size: 12
	index: 0, handler: __TI_decompress_lzss
	index: 1, handler: __TI_decompress_none
	index: 2, handler: __TI_zero_init


GLOBAL SYMBOLS: SORTED ALPHABETICALLY BY Name 

address   name                           
-------   ----                           
000039d7  ADC14_IRQHandler               
000039d7  AES256_IRQHandler              
0000060b  Add                            
00003239  Bump_Init                      
0000326d  Bump_Read                      
000039d7  BusFault_Handler               
00003761  C$$EXIT                        
00003567  C$$IO$$                        
000039d7  COMP_E0_IRQHandler             
000039d7  COMP_E1_IRQHandler             
20000998  CPMwait                        
000039d7  CS_IRQHandler                  
000005c3  CanPop                         
000007b9  CheckBumper                    
20000990  ClockFrequency                 
00002685  Clock_Delay1ms                 
0000265b  Clock_Delay1us                 
00002647  Clock_GetFreq                  
00002531  Clock_Init48MHz                
200009a4  Crystalstable                  
000039d7  DMA_ERR_IRQHandler             
000039d7  DMA_INT0_IRQHandler            
000039d7  DMA_INT1_IRQHandler            
000039d7  DMA_INT2_IRQHandler            
000039d7  DMA_INT3_IRQHandler            
000039d7  DebugMon_Handler               
000039d7  Default_Handler                
00003915  DisableInterrupts              
0000071b  Divide                         
000016e5  EUSCIA0_IRQHandler             
000016e5  EUSCIA0_IRQHandler             
000016b9  EUSCIA0_InChar                 
00001b81  EUSCIA0_InString               
00001739  EUSCIA0_InUDec                 
00001a35  EUSCIA0_InUHex                 
00001655  EUSCIA0_Init                   
000016cb  EUSCIA0_OutChar                
0000171b  EUSCIA0_OutString              
000017bd  EUSCIA0_OutUDec                
0000194d  EUSCIA0_OutUDec4               
00001985  EUSCIA0_OutUDec5               
000019c1  EUSCIA0_OutUFix1               
000019e9  EUSCIA0_OutUFix2               
00001afd  EUSCIA0_OutUHex                
00001b63  EUSCIA0_OutUHex2               
00001b41  EUSCIA0outnibble               
000039d7  EUSCIA1_IRQHandler             
000039d7  EUSCIA2_IRQHandler             
000039d7  EUSCIA3_IRQHandler             
000039d7  EUSCIB0_IRQHandler             
000039d7  EUSCIB1_IRQHandler             
000039d7  EUSCIB2_IRQHandler             
000039d7  EUSCIB3_IRQHandler             
20000794  Elapsed                        
0000391b  EnableInterrupts               
0000392b  EndCritical                    
000039d7  FLCTL_IRQHandler               
000039d7  FPU_IRQHandler                 
20000798  First                          
00003801  HOSTclose                      
000034d1  HOSTlseek                      
000035a1  HOSTopen                       
0000365d  HOSTread                       
000033fd  HOSTrename                     
00003845  HOSTunlink                     
000036b5  HOSTwrite                      
000039d7  HardFault_Handler              
200009a0  IFlags                         
000039e8  LL                             
00002bd5  LaunchPad_Init                 
00002c45  LaunchPad_Input                
00002c5f  LaunchPad_LED                  
00002c7d  LaunchPad_Output               
2000079c  MaxTime                        
000039d7  MemManage_Handler              
2000077c  Messageb                       
20000784  Messagec                       
200007a0  Messageindexb                  
200007a4  Messageindexc                  
00002a03  Motor_Backward                 
0000293b  Motor_Forward                  
000028d5  Motor_Init                     
000029bd  Motor_Left                     
00002977  Motor_Right                    
00002927  Motor_Stop                     
000006e1  Multiply                       
000039d7  NMI_Handler                    
200007a8  NumErrors                      
200007ac  NumSuccess                     
000039d7  PCM_IRQHandler                 
000039d7  PORT1_IRQHandler               
000039d7  PORT2_IRQHandler               
000039d7  PORT3_IRQHandler               
000039d7  PORT4_IRQHandler               
000039d7  PORT5_IRQHandler               
000039d7  PORT6_IRQHandler               
000039d7  PSS_IRQHandler                 
000023f3  PWM_Duty1                      
00002413  PWM_Duty2                      
000024b7  PWM_Duty3                      
000024d7  PWM_Duty4                      
00002309  PWM_Init1                      
0000236f  PWM_Init12                     
00002433  PWM_Init34                     
000039d7  PendSV_Handler                 
000005e9  Pop                            
00000757  PopPrintDec                    
00000799  PopPrintFix                    
0000073f  PopPrintHex                    
00000781  PopPrintUDec                   
2000099c  Postwait                       
20000994  Prewait                        
000001af  Program18_2                    
00000269  Program18_3                    
0000034d  Program18_4                    
0000059b  Push                           
000039d7  RTC_C_IRQHandler               
000000e5  Random                         
200007d4  ReadData                       
000007b1  Reset                          
000039cb  Reset_Handler                  
200007b0  Running                        
200007b4  Rx0GetI                        
200007b8  Rx0PutI                        
00002b6f  RxFifo0_Get                    
00002b25  RxFifo0_Init                   
00002b31  RxFifo0_Put                    
00002ba5  RxFifo0_Size                   
UNDEFED   SHT$$INIT_ARRAY$$Base          
UNDEFED   SHT$$INIT_ARRAY$$Limit         
000039d7  SVC_Handler                    
200007bc  Size                           
200009d8  Speed                          
00003921  StartCritical                  
20000700  String                         
00000671  Subtract                       
000039d7  SysTick_Handler                
00003391  SysTick_Init                   
000033a1  SysTick_Wait                   
000033c7  SysTick_Wait10ms               
200009f0  SystemCoreClock                
00001fdd  SystemCoreClockUpdate          
00002251  SystemInit                     
000039d7  T32_INT1_IRQHandler            
000039d7  T32_INT2_IRQHandler            
000039d7  T32_INTC_IRQHandler            
000039d7  TA0_0_IRQHandler               
000039d7  TA0_N_IRQHandler               
00003053  TA1_0_IRQHandler               
00003053  TA1_0_IRQHandler               
000039d7  TA1_N_IRQHandler               
000039d7  TA2_0_IRQHandler               
000039d7  TA2_N_IRQHandler               
000039d7  TA3_0_IRQHandler               
000039d7  TA3_N_IRQHandler               
000000fd  TestFifo                       
200007c0  Time                           
200007c4  TimerA1Task                    
00002fe1  TimerA1_Init                   
0000303f  TimerA1_Stop                   
200007c8  Tx0GetI                        
200007cc  Tx0PutI                        
00002add  TxFifo0_Get                    
00002a61  TxFifo0_Init                   
00002a93  TxFifo0_Put                    
00002b13  TxFifo0_Size                   
20000520  TxHistogram                    
00000fdf  UART0_InChar                   
00001469  UART0_InString                 
00001029  UART0_InUDec                   
0000131d  UART0_InUHex                   
00000f99  UART0_Init                     
000015c9  UART0_Initprintf               
00000fef  UART0_OutChar                  
0000100b  UART0_OutString                
000010ad  UART0_OutUDec                  
00001219  UART0_OutUDec4                 
0000126d  UART0_OutUDec5                 
000012a9  UART0_OutUFix1                 
000012d1  UART0_OutUFix2                 
000013e1  UART0_OutUHex                  
0000144d  UART0_OutUHex2                 
000039d7  UsageFault_Handler             
200007d0  UserSP                         
20000740  UserStack                      
4000480c  WDTCTL_SYM                     
000039d7  WDT_A_IRQHandler               
00003933  WaitForInterrupt               
200007d5  WriteData                      
20000400  __CIOBUF_                      
20010000  __STACK_END                    
00000200  __STACK_SIZE                   
00000400  __SYSMEM_SIZE                  
00003b98  __TI_CINIT_Base                
00003ba8  __TI_CINIT_Limit               
00003b84  __TI_Handler_Table_Base        
00003b90  __TI_Handler_Table_Limit       
000032b1  __TI_auto_init                 
000027d9  __TI_cleanup                   
200009b8  __TI_cleanup_ptr               
00003125  __TI_closefile                 
00003469  __TI_decompress_lzss           
000039bd  __TI_decompress_none           
00002da5  __TI_doflush                   
200009bc  __TI_dtors_ptr                 
200009c0  __TI_enable_exit_profile_output
200009a8  __TI_ft_end                    
ffffffff  __TI_pprof_out_hndl            
ffffffff  __TI_prof_data_size            
ffffffff  __TI_prof_data_start           
0000356b  __TI_readmsg                   
00000000  __TI_static_base__             
20000620  __TI_tmpnams                   
00003539  __TI_writemsg                  
000039d9  __TI_zero_init                 
000031bd  __aeabi_memclr                 
000031bd  __aeabi_memclr4                
000031bd  __aeabi_memclr8                
00003089  __aeabi_memcpy                 
00003089  __aeabi_memcpy4                
00003089  __aeabi_memcpy8                
000031bf  __aeabi_memset                 
000031bf  __aeabi_memset4                
000031bf  __aeabi_memset8                
200009b4  __aeabi_stderr                 
200009ac  __aeabi_stdin                  
200009b0  __aeabi_stdout                 
ffffffff  __binit__                      
ffffffff  __c_args__                     
00001c0b  __mpu_init                     
2000fe00  __stack                        
00003939  _args_main                     
0000370d  _c_int00                       
200008c8  _device                        
200007d8  _ftable                        
200009d0  _lock                          
0000398f  _nop                           
00003987  _register_lock                 
00003981  _register_unlock               
20000940  _stream                        
20000000  _sys_memory                    
00003237  _system_post_cinit             
000039e5  _system_pre_init               
200009d4  _unlock                        
00003765  abort                          
00002f29  add_device                     
00000889  backMotor                      
ffffffff  binit                          
00001fad  calloc                         
00003601  close                          
000037b5  copy_in                        
0000264d  delay                          
0000376d  exit                           
0000318b  fclose                         
00001503  ferror                         
00002df1  fflush                         
000014e3  fgetc                          
00003321  finddevice                     
0000282f  fopen                          
0000084f  forwardMotor                   
00001cf7  free                           
00002805  freopen                        
0000334b  getdevice                      
00000919  goSquare                       
000009f1  help                           
00000000  interruptVectors               
000004a5  isNumber                       
00000471  isPrinting                     
00000445  isWhite                        
000008c5  leftMotor                      
00000141  main                           
200009ec  main_func_sp                   
00001c8d  malloc                         
00001ec1  memalign                       
00003089  memcpy                         
000031c5  memset                         
00001c0d  minit                          
00002e6d  open                           
000007e1  outLED                         
00001425  outnibble                      
2000078c  parmbuf                        
000009bf  readBump                       
00001db9  realloc                        
000038c1  remove                         
000008ef  rightMotor                     
00000e55  rmain                          
00000805  setSpeed                       
00002cc9  setvbuf                        
000009d1  stopMotor                      
00003969  strchr                         
00003951  strcmp                         
00003995  strcpy                         
000039a9  strlen                         
00003889  strncpy                        
00001521  uart_close                     
0000159f  uart_lseek                     
00001511  uart_open                      
00001533  uart_read                      
000015bb  uart_rename                    
000015af  uart_unlink                    
0000155d  uart_write                     
000038c1  unlink                         
000038ed  write                          


GLOBAL SYMBOLS: SORTED BY Symbol Address 

address   name                           
-------   ----                           
00000000  __TI_static_base__             
00000000  interruptVectors               
000000e5  Random                         
000000fd  TestFifo                       
00000141  main                           
000001af  Program18_2                    
00000200  __STACK_SIZE                   
00000269  Program18_3                    
0000034d  Program18_4                    
00000400  __SYSMEM_SIZE                  
00000445  isWhite                        
00000471  isPrinting                     
000004a5  isNumber                       
0000059b  Push                           
000005c3  CanPop                         
000005e9  Pop                            
0000060b  Add                            
00000671  Subtract                       
000006e1  Multiply                       
0000071b  Divide                         
0000073f  PopPrintHex                    
00000757  PopPrintDec                    
00000781  PopPrintUDec                   
00000799  PopPrintFix                    
000007b1  Reset                          
000007b9  CheckBumper                    
000007e1  outLED                         
00000805  setSpeed                       
0000084f  forwardMotor                   
00000889  backMotor                      
000008c5  leftMotor                      
000008ef  rightMotor                     
00000919  goSquare                       
000009bf  readBump                       
000009d1  stopMotor                      
000009f1  help                           
00000e55  rmain                          
00000f99  UART0_Init                     
00000fdf  UART0_InChar                   
00000fef  UART0_OutChar                  
0000100b  UART0_OutString                
00001029  UART0_InUDec                   
000010ad  UART0_OutUDec                  
00001219  UART0_OutUDec4                 
0000126d  UART0_OutUDec5                 
000012a9  UART0_OutUFix1                 
000012d1  UART0_OutUFix2                 
0000131d  UART0_InUHex                   
000013e1  UART0_OutUHex                  
00001425  outnibble                      
0000144d  UART0_OutUHex2                 
00001469  UART0_InString                 
000014e3  fgetc                          
00001503  ferror                         
00001511  uart_open                      
00001521  uart_close                     
00001533  uart_read                      
0000155d  uart_write                     
0000159f  uart_lseek                     
000015af  uart_unlink                    
000015bb  uart_rename                    
000015c9  UART0_Initprintf               
00001655  EUSCIA0_Init                   
000016b9  EUSCIA0_InChar                 
000016cb  EUSCIA0_OutChar                
000016e5  EUSCIA0_IRQHandler             
000016e5  EUSCIA0_IRQHandler             
0000171b  EUSCIA0_OutString              
00001739  EUSCIA0_InUDec                 
000017bd  EUSCIA0_OutUDec                
0000194d  EUSCIA0_OutUDec4               
00001985  EUSCIA0_OutUDec5               
000019c1  EUSCIA0_OutUFix1               
000019e9  EUSCIA0_OutUFix2               
00001a35  EUSCIA0_InUHex                 
00001afd  EUSCIA0_OutUHex                
00001b41  EUSCIA0outnibble               
00001b63  EUSCIA0_OutUHex2               
00001b81  EUSCIA0_InString               
00001c0b  __mpu_init                     
00001c0d  minit                          
00001c8d  malloc                         
00001cf7  free                           
00001db9  realloc                        
00001ec1  memalign                       
00001fad  calloc                         
00001fdd  SystemCoreClockUpdate          
00002251  SystemInit                     
00002309  PWM_Init1                      
0000236f  PWM_Init12                     
000023f3  PWM_Duty1                      
00002413  PWM_Duty2                      
00002433  PWM_Init34                     
000024b7  PWM_Duty3                      
000024d7  PWM_Duty4                      
00002531  Clock_Init48MHz                
00002647  Clock_GetFreq                  
0000264d  delay                          
0000265b  Clock_Delay1us                 
00002685  Clock_Delay1ms                 
000027d9  __TI_cleanup                   
00002805  freopen                        
0000282f  fopen                          
000028d5  Motor_Init                     
00002927  Motor_Stop                     
0000293b  Motor_Forward                  
00002977  Motor_Right                    
000029bd  Motor_Left                     
00002a03  Motor_Backward                 
00002a61  TxFifo0_Init                   
00002a93  TxFifo0_Put                    
00002add  TxFifo0_Get                    
00002b13  TxFifo0_Size                   
00002b25  RxFifo0_Init                   
00002b31  RxFifo0_Put                    
00002b6f  RxFifo0_Get                    
00002ba5  RxFifo0_Size                   
00002bd5  LaunchPad_Init                 
00002c45  LaunchPad_Input                
00002c5f  LaunchPad_LED                  
00002c7d  LaunchPad_Output               
00002cc9  setvbuf                        
00002da5  __TI_doflush                   
00002df1  fflush                         
00002e6d  open                           
00002f29  add_device                     
00002fe1  TimerA1_Init                   
0000303f  TimerA1_Stop                   
00003053  TA1_0_IRQHandler               
00003053  TA1_0_IRQHandler               
00003089  __aeabi_memcpy                 
00003089  __aeabi_memcpy4                
00003089  __aeabi_memcpy8                
00003089  memcpy                         
00003125  __TI_closefile                 
0000318b  fclose                         
000031bd  __aeabi_memclr                 
000031bd  __aeabi_memclr4                
000031bd  __aeabi_memclr8                
000031bf  __aeabi_memset                 
000031bf  __aeabi_memset4                
000031bf  __aeabi_memset8                
000031c5  memset                         
00003237  _system_post_cinit             
00003239  Bump_Init                      
0000326d  Bump_Read                      
000032b1  __TI_auto_init                 
00003321  finddevice                     
0000334b  getdevice                      
00003391  SysTick_Init                   
000033a1  SysTick_Wait                   
000033c7  SysTick_Wait10ms               
000033fd  HOSTrename                     
00003469  __TI_decompress_lzss           
000034d1  HOSTlseek                      
00003539  __TI_writemsg                  
00003567  C$$IO$$                        
0000356b  __TI_readmsg                   
000035a1  HOSTopen                       
00003601  close                          
0000365d  HOSTread                       
000036b5  HOSTwrite                      
0000370d  _c_int00                       
00003761  C$$EXIT                        
00003765  abort                          
0000376d  exit                           
000037b5  copy_in                        
00003801  HOSTclose                      
00003845  HOSTunlink                     
00003889  strncpy                        
000038c1  remove                         
000038c1  unlink                         
000038ed  write                          
00003915  DisableInterrupts              
0000391b  EnableInterrupts               
00003921  StartCritical                  
0000392b  EndCritical                    
00003933  WaitForInterrupt               
00003939  _args_main                     
00003951  strcmp                         
00003969  strchr                         
00003981  _register_unlock               
00003987  _register_lock                 
0000398f  _nop                           
00003995  strcpy                         
000039a9  strlen                         
000039bd  __TI_decompress_none           
000039cb  Reset_Handler                  
000039d7  ADC14_IRQHandler               
000039d7  AES256_IRQHandler              
000039d7  BusFault_Handler               
000039d7  COMP_E0_IRQHandler             
000039d7  COMP_E1_IRQHandler             
000039d7  CS_IRQHandler                  
000039d7  DMA_ERR_IRQHandler             
000039d7  DMA_INT0_IRQHandler            
000039d7  DMA_INT1_IRQHandler            
000039d7  DMA_INT2_IRQHandler            
000039d7  DMA_INT3_IRQHandler            
000039d7  DebugMon_Handler               
000039d7  Default_Handler                
000039d7  EUSCIA1_IRQHandler             
000039d7  EUSCIA2_IRQHandler             
000039d7  EUSCIA3_IRQHandler             
000039d7  EUSCIB0_IRQHandler             
000039d7  EUSCIB1_IRQHandler             
000039d7  EUSCIB2_IRQHandler             
000039d7  EUSCIB3_IRQHandler             
000039d7  FLCTL_IRQHandler               
000039d7  FPU_IRQHandler                 
000039d7  HardFault_Handler              
000039d7  MemManage_Handler              
000039d7  NMI_Handler                    
000039d7  PCM_IRQHandler                 
000039d7  PORT1_IRQHandler               
000039d7  PORT2_IRQHandler               
000039d7  PORT3_IRQHandler               
000039d7  PORT4_IRQHandler               
000039d7  PORT5_IRQHandler               
000039d7  PORT6_IRQHandler               
000039d7  PSS_IRQHandler                 
000039d7  PendSV_Handler                 
000039d7  RTC_C_IRQHandler               
000039d7  SVC_Handler                    
000039d7  SysTick_Handler                
000039d7  T32_INT1_IRQHandler            
000039d7  T32_INT2_IRQHandler            
000039d7  T32_INTC_IRQHandler            
000039d7  TA0_0_IRQHandler               
000039d7  TA0_N_IRQHandler               
000039d7  TA1_N_IRQHandler               
000039d7  TA2_0_IRQHandler               
000039d7  TA2_N_IRQHandler               
000039d7  TA3_0_IRQHandler               
000039d7  TA3_N_IRQHandler               
000039d7  UsageFault_Handler             
000039d7  WDT_A_IRQHandler               
000039d9  __TI_zero_init                 
000039e5  _system_pre_init               
000039e8  LL                             
00003b84  __TI_Handler_Table_Base        
00003b90  __TI_Handler_Table_Limit       
00003b98  __TI_CINIT_Base                
00003ba8  __TI_CINIT_Limit               
20000000  _sys_memory                    
20000400  __CIOBUF_                      
20000520  TxHistogram                    
20000620  __TI_tmpnams                   
20000700  String                         
20000740  UserStack                      
2000077c  Messageb                       
20000784  Messagec                       
2000078c  parmbuf                        
20000794  Elapsed                        
20000798  First                          
2000079c  MaxTime                        
200007a0  Messageindexb                  
200007a4  Messageindexc                  
200007a8  NumErrors                      
200007ac  NumSuccess                     
200007b0  Running                        
200007b4  Rx0GetI                        
200007b8  Rx0PutI                        
200007bc  Size                           
200007c0  Time                           
200007c4  TimerA1Task                    
200007c8  Tx0GetI                        
200007cc  Tx0PutI                        
200007d0  UserSP                         
200007d4  ReadData                       
200007d5  WriteData                      
200007d8  _ftable                        
200008c8  _device                        
20000940  _stream                        
20000990  ClockFrequency                 
20000994  Prewait                        
20000998  CPMwait                        
2000099c  Postwait                       
200009a0  IFlags                         
200009a4  Crystalstable                  
200009a8  __TI_ft_end                    
200009ac  __aeabi_stdin                  
200009b0  __aeabi_stdout                 
200009b4  __aeabi_stderr                 
200009b8  __TI_cleanup_ptr               
200009bc  __TI_dtors_ptr                 
200009c0  __TI_enable_exit_profile_output
200009d0  _lock                          
200009d4  _unlock                        
200009d8  Speed                          
200009ec  main_func_sp                   
200009f0  SystemCoreClock                
2000fe00  __stack                        
20010000  __STACK_END                    
4000480c  WDTCTL_SYM                     
ffffffff  __TI_pprof_out_hndl            
ffffffff  __TI_prof_data_size            
ffffffff  __TI_prof_data_start           
ffffffff  __binit__                      
ffffffff  __c_args__                     
ffffffff  binit                          
UNDEFED   SHT$$INIT_ARRAY$$Base          
UNDEFED   SHT$$INIT_ARRAY$$Limit         

[303 symbols]
